{
  "contractName": "certificate",
  "abi": [
    {
      "inputs": [],
      "stateMutability": "nonpayable",
      "type": "constructor"
    },
    {
      "inputs": [
        {
          "internalType": "address",
          "name": "",
          "type": "address"
        }
      ],
      "name": "addressToInfo",
      "outputs": [
        {
          "internalType": "address",
          "name": "addr",
          "type": "address"
        },
        {
          "internalType": "string",
          "name": "name",
          "type": "string"
        },
        {
          "internalType": "string",
          "name": "birth",
          "type": "string"
        },
        {
          "internalType": "uint256",
          "name": "notBefore",
          "type": "uint256"
        },
        {
          "internalType": "uint256",
          "name": "notAfter",
          "type": "uint256"
        },
        {
          "internalType": "bytes32",
          "name": "id",
          "type": "bytes32"
        }
      ],
      "stateMutability": "view",
      "type": "function",
      "constant": true
    },
    {
      "inputs": [
        {
          "internalType": "address",
          "name": "",
          "type": "address"
        }
      ],
      "name": "certificates",
      "outputs": [
        {
          "internalType": "bytes32",
          "name": "certhash",
          "type": "bytes32"
        },
        {
          "internalType": "address",
          "name": "caPubkey",
          "type": "address"
        },
        {
          "internalType": "address",
          "name": "userPubkey",
          "type": "address"
        }
      ],
      "stateMutability": "view",
      "type": "function",
      "constant": true
    },
    {
      "inputs": [],
      "name": "hasinfo",
      "outputs": [
        {
          "internalType": "bool",
          "name": "",
          "type": "bool"
        }
      ],
      "stateMutability": "nonpayable",
      "type": "function"
    },
    {
      "inputs": [],
      "name": "setTime",
      "outputs": [],
      "stateMutability": "nonpayable",
      "type": "function"
    },
    {
      "inputs": [
        {
          "internalType": "string",
          "name": "name",
          "type": "string"
        },
        {
          "internalType": "string",
          "name": "birth",
          "type": "string"
        }
      ],
      "name": "newUserInfo",
      "outputs": [],
      "stateMutability": "nonpayable",
      "type": "function"
    },
    {
      "inputs": [],
      "name": "setId",
      "outputs": [
        {
          "internalType": "bytes32",
          "name": "",
          "type": "bytes32"
        }
      ],
      "stateMutability": "nonpayable",
      "type": "function"
    },
    {
      "inputs": [],
      "name": "newCert",
      "outputs": [],
      "stateMutability": "nonpayable",
      "type": "function"
    },
    {
      "inputs": [],
      "name": "getCertificate",
      "outputs": [
        {
          "internalType": "address",
          "name": "",
          "type": "address"
        },
        {
          "internalType": "string",
          "name": "",
          "type": "string"
        },
        {
          "internalType": "string",
          "name": "",
          "type": "string"
        },
        {
          "internalType": "uint256",
          "name": "",
          "type": "uint256"
        },
        {
          "internalType": "uint256",
          "name": "",
          "type": "uint256"
        },
        {
          "internalType": "bytes32",
          "name": "",
          "type": "bytes32"
        }
      ],
      "stateMutability": "view",
      "type": "function",
      "constant": true
    },
    {
      "inputs": [],
      "name": "getCertInfo",
      "outputs": [
        {
          "internalType": "bytes32",
          "name": "",
          "type": "bytes32"
        },
        {
          "internalType": "address",
          "name": "",
          "type": "address"
        },
        {
          "internalType": "address",
          "name": "",
          "type": "address"
        }
      ],
      "stateMutability": "view",
      "type": "function",
      "constant": true
    },
    {
      "inputs": [
        {
          "internalType": "string",
          "name": "name",
          "type": "string"
        },
        {
          "internalType": "string",
          "name": "birth",
          "type": "string"
        }
      ],
      "name": "issue",
      "outputs": [],
      "stateMutability": "nonpayable",
      "type": "function"
    },
    {
      "inputs": [
        {
          "internalType": "string",
          "name": "name",
          "type": "string"
        },
        {
          "internalType": "string",
          "name": "birth",
          "type": "string"
        },
        {
          "internalType": "uint256",
          "name": "nbefore",
          "type": "uint256"
        },
        {
          "internalType": "uint256",
          "name": "nafter",
          "type": "uint256"
        },
        {
          "internalType": "bytes32",
          "name": "id",
          "type": "bytes32"
        }
      ],
      "name": "verification2",
      "outputs": [
        {
          "internalType": "bool",
          "name": "",
          "type": "bool"
        }
      ],
      "stateMutability": "nonpayable",
      "type": "function"
    }
  ],
  "bytecode": "0x608060405234801561001057600080fd5b5033600160006101000a81548173ffffffffffffffffffffffffffffffffffffffff021916908373ffffffffffffffffffffffffffffffffffffffff160217905550612306806100616000396000f3fe608060405234801561001057600080fd5b50600436106100a85760003560e01c8063a0b3998f11610071578063a0b3998f1461016e578063ae15eb8e1461018a578063c1f40478146101ad578063d05c11e6146101b7578063d9276a49146101d5578063f5e93d69146101df576100a8565b806216e526146100ad578063087e926c146100df5780631532f93a146100fd578063289fd6541461011d5780637f50670a14610139575b600080fd5b6100c760048036038101906100c29190611bb5565b61020f565b6040516100d693929190611c0a565b60405180910390f35b6100e7610279565b6040516100f49190611c41565b60405180910390f35b6101056102a9565b60405161011493929190611c0a565b60405180910390f35b61013760048036038101906101329190611da2565b610428565b005b610153600480360381019061014e9190611bb5565b61045b565b60405161016596959493929190611ebb565b60405180910390f35b61018860048036038101906101839190611da2565b6105c7565b005b610192610abf565b6040516101a496959493929190611ebb565b60405180910390f35b6101b5610e71565b005b6101bf61105a565b6040516101cc9190611f45565b60405180910390f35b6101dd6110dc565b005b6101f960048036038101906101f49190611fb8565b6110fd565b6040516102069190611f45565b60405180910390f35b60056020528060005260406000206000915090508060000154908060010160009054906101000a900473ffffffffffffffffffffffffffffffffffffffff16908060020160009054906101000a900473ffffffffffffffffffffffffffffffffffffffff16905083565b6000423360405160200161028e9291906120d4565b60405160208183030381529060405280519060200120905090565b600080600060056000600160009054906101000a900473ffffffffffffffffffffffffffffffffffffffff1673ffffffffffffffffffffffffffffffffffffffff1673ffffffffffffffffffffffffffffffffffffffff1681526020019081526020016000206000015460056000600160009054906101000a900473ffffffffffffffffffffffffffffffffffffffff1673ffffffffffffffffffffffffffffffffffffffff1673ffffffffffffffffffffffffffffffffffffffff16815260200190815260200160002060010160009054906101000a900473ffffffffffffffffffffffffffffffffffffffff1660056000600160009054906101000a900473ffffffffffffffffffffffffffffffffffffffff1673ffffffffffffffffffffffffffffffffffffffff1673ffffffffffffffffffffffffffffffffffffffff16815260200190815260200160002060020160009054906101000a900473ffffffffffffffffffffffffffffffffffffffff16925092509250909192565b6000151561043461105a565b15151415610457576104446110dc565b61044e82826105c7565b610456610e71565b5b5050565b60046020528060005260406000206000915090508060000160009054906101000a900473ffffffffffffffffffffffffffffffffffffffff16908060010180546104a49061212f565b80601f01602080910402602001604051908101604052809291908181526020018280546104d09061212f565b801561051d5780601f106104f25761010080835404028352916020019161051d565b820191906000526020600020905b81548152906001019060200180831161050057829003601f168201915b5050505050908060020180546105329061212f565b80601f016020809104026020016040519081016040528092919081815260200182805461055e9061212f565b80156105ab5780601f10610580576101008083540402835291602001916105ab565b820191906000526020600020905b81548152906001019060200180831161058e57829003601f168201915b5050505050908060030154908060040154908060050154905086565b3360046000600160009054906101000a900473ffffffffffffffffffffffffffffffffffffffff1673ffffffffffffffffffffffffffffffffffffffff1673ffffffffffffffffffffffffffffffffffffffff16815260200190815260200160002060000160006101000a81548173ffffffffffffffffffffffffffffffffffffffff021916908373ffffffffffffffffffffffffffffffffffffffff1602179055508160046000600160009054906101000a900473ffffffffffffffffffffffffffffffffffffffff1673ffffffffffffffffffffffffffffffffffffffff1673ffffffffffffffffffffffffffffffffffffffff16815260200190815260200160002060010190805190602001906106e2929190611aa0565b508060046000600160009054906101000a900473ffffffffffffffffffffffffffffffffffffffff1673ffffffffffffffffffffffffffffffffffffffff1673ffffffffffffffffffffffffffffffffffffffff168152602001908152602001600020600201908051906020019061075b929190611aa0565b5060025460046000600160009054906101000a900473ffffffffffffffffffffffffffffffffffffffff1673ffffffffffffffffffffffffffffffffffffffff1673ffffffffffffffffffffffffffffffffffffffff1681526020019081526020016000206003018190555060035460046000600160009054906101000a900473ffffffffffffffffffffffffffffffffffffffff1673ffffffffffffffffffffffffffffffffffffffff1673ffffffffffffffffffffffffffffffffffffffff1681526020019081526020016000206004018190555061083a610279565b60046000600160009054906101000a900473ffffffffffffffffffffffffffffffffffffffff1673ffffffffffffffffffffffffffffffffffffffff1673ffffffffffffffffffffffffffffffffffffffff16815260200190815260200160002060050181905550610aae60046000600160009054906101000a900473ffffffffffffffffffffffffffffffffffffffff1673ffffffffffffffffffffffffffffffffffffffff1673ffffffffffffffffffffffffffffffffffffffff1681526020019081526020016000206040518060c00160405290816000820160009054906101000a900473ffffffffffffffffffffffffffffffffffffffff1673ffffffffffffffffffffffffffffffffffffffff1673ffffffffffffffffffffffffffffffffffffffff1681526020016001820180546109779061212f565b80601f01602080910402602001604051908101604052809291908181526020018280546109a39061212f565b80156109f05780601f106109c5576101008083540402835291602001916109f0565b820191906000526020600020905b8154815290600101906020018083116109d357829003601f168201915b50505050508152602001600282018054610a099061212f565b80601f0160208091040260200160405190810160405280929190818152602001828054610a359061212f565b8015610a825780601f10610a5757610100808354040283529160200191610a82565b820191906000526020600020905b815481529060010190602001808311610a6557829003601f168201915b505050505081526020016003820154815260200160048201548152602001600582015481525050611613565b805190602001206000819055505050565b6000606080600080600060046000600160009054906101000a900473ffffffffffffffffffffffffffffffffffffffff1673ffffffffffffffffffffffffffffffffffffffff1673ffffffffffffffffffffffffffffffffffffffff16815260200190815260200160002060000160009054906101000a900473ffffffffffffffffffffffffffffffffffffffff1660046000600160009054906101000a900473ffffffffffffffffffffffffffffffffffffffff1673ffffffffffffffffffffffffffffffffffffffff1673ffffffffffffffffffffffffffffffffffffffff16815260200190815260200160002060010160046000600160009054906101000a900473ffffffffffffffffffffffffffffffffffffffff1673ffffffffffffffffffffffffffffffffffffffff1673ffffffffffffffffffffffffffffffffffffffff16815260200190815260200160002060020160046000600160009054906101000a900473ffffffffffffffffffffffffffffffffffffffff1673ffffffffffffffffffffffffffffffffffffffff1673ffffffffffffffffffffffffffffffffffffffff1681526020019081526020016000206003015460046000600160009054906101000a900473ffffffffffffffffffffffffffffffffffffffff1673ffffffffffffffffffffffffffffffffffffffff1673ffffffffffffffffffffffffffffffffffffffff1681526020019081526020016000206004015460046000600160009054906101000a900473ffffffffffffffffffffffffffffffffffffffff1673ffffffffffffffffffffffffffffffffffffffff1673ffffffffffffffffffffffffffffffffffffffff16815260200190815260200160002060050154848054610d519061212f565b80601f0160208091040260200160405190810160405280929190818152602001828054610d7d9061212f565b8015610dca5780601f10610d9f57610100808354040283529160200191610dca565b820191906000526020600020905b815481529060010190602001808311610dad57829003601f168201915b50505050509450838054610ddd9061212f565b80601f0160208091040260200160405190810160405280929190818152602001828054610e099061212f565b8015610e565780601f10610e2b57610100808354040283529160200191610e56565b820191906000526020600020905b815481529060010190602001808311610e3957829003601f168201915b50505050509350955095509550955095509550909192939495565b734d7de9f4b63cf7a2a551d713d5fdfb8b0d3e3dd860056000600160009054906101000a900473ffffffffffffffffffffffffffffffffffffffff1673ffffffffffffffffffffffffffffffffffffffff1673ffffffffffffffffffffffffffffffffffffffff16815260200190815260200160002060010160006101000a81548173ffffffffffffffffffffffffffffffffffffffff021916908373ffffffffffffffffffffffffffffffffffffffff160217905550600160009054906101000a900473ffffffffffffffffffffffffffffffffffffffff1660056000600160009054906101000a900473ffffffffffffffffffffffffffffffffffffffff1673ffffffffffffffffffffffffffffffffffffffff1673ffffffffffffffffffffffffffffffffffffffff16815260200190815260200160002060020160006101000a81548173ffffffffffffffffffffffffffffffffffffffff021916908373ffffffffffffffffffffffffffffffffffffffff16021790555060005460056000600160009054906101000a900473ffffffffffffffffffffffffffffffffffffffff1673ffffffffffffffffffffffffffffffffffffffff1673ffffffffffffffffffffffffffffffffffffffff16815260200190815260200160002060000181905550565b60008060001b60046000600160009054906101000a900473ffffffffffffffffffffffffffffffffffffffff1673ffffffffffffffffffffffffffffffffffffffff1673ffffffffffffffffffffffffffffffffffffffff1681526020019081526020016000206005015414156110d457600090506110d9565b600190505b90565b426002819055506301e133806002546110f59190612190565b600381905550565b6000808551875160746111109190612190565b61111a9190612190565b905060008167ffffffffffffffff81111561113857611137611c77565b5b6040519080825280601f01601f19166020018201604052801561116a5781602001600182028036833780820191505090505b509050600080600160009054906101000a900473ffffffffffffffffffffffffffffffffffffffff166040516020016111a391906121e6565b60405160208183030381529060405290506000886040516020016111c79190612201565b60405160208183030381529060405290506000886040516020016111eb9190612201565b604051602081830303815290604052905060008860405160200161120f919061223d565b604051602081830303815290604052905060005b60148110156112ad5784818151811061123f5761123e612258565b5b602001015160f81c60f81b87878151811061125d5761125c612258565b5b60200101907effffffffffffffffffffffffffffffffffffffffffffffffffffffffffffff1916908160001a905350858061129790612287565b96505080806112a590612287565b915050611223565b5060005b8d5181101561133b578d81815181106112cd576112cc612258565b5b602001015160f81c60f81b8787815181106112eb576112ea612258565b5b60200101907effffffffffffffffffffffffffffffffffffffffffffffffffffffffffffff1916908160001a905350858061132590612287565b965050808061133390612287565b9150506112b1565b5060005b8c518110156113c9578c818151811061135b5761135a612258565b5b602001015160f81c60f81b87878151811061137957611378612258565b5b60200101907effffffffffffffffffffffffffffffffffffffffffffffffffffffffffffff1916908160001a90535085806113b390612287565b96505080806113c190612287565b91505061133f565b5060005b6020811015611457578381815181106113e9576113e8612258565b5b602001015160f81c60f81b87878151811061140757611406612258565b5b60200101907effffffffffffffffffffffffffffffffffffffffffffffffffffffffffffff1916908160001a905350858061144190612287565b965050808061144f90612287565b9150506113cd565b5060005b60208110156114e55782818151811061147757611476612258565b5b602001015160f81c60f81b87878151811061149557611494612258565b5b60200101907effffffffffffffffffffffffffffffffffffffffffffffffffffffffffffff1916908160001a90535085806114cf90612287565b96505080806114dd90612287565b91505061145b565b5060005b60208110156115735781818151811061150557611504612258565b5b602001015160f81c60f81b87878151811061152357611522612258565b5b60200101907effffffffffffffffffffffffffffffffffffffffffffffffffffffffffffff1916908160001a905350858061155d90612287565b965050808061156b90612287565b9150506114e9565b5060008680519060200120905060056000600160009054906101000a900473ffffffffffffffffffffffffffffffffffffffff1673ffffffffffffffffffffffffffffffffffffffff1673ffffffffffffffffffffffffffffffffffffffff168152602001908152602001600020600001548114156115fd5760019850505050505050505061160a565b6000985050505050505050505b95945050505050565b60606000826040015151836020015151607461162f9190612190565b6116399190612190565b905060008167ffffffffffffffff81111561165757611656611c77565b5b6040519080825280601f01601f1916602001820160405280156116895781602001600182028036833780820191505090505b50905060008085600001516040516020016116a491906121e6565b6040516020818303038152906040529050600086606001516040516020016116cc9190612201565b6040516020818303038152906040529050600087608001516040516020016116f49190612201565b604051602081830303815290604052905060008860a0015160405160200161171c919061223d565b604051602081830303815290604052905060005b60148110156117ba5784818151811061174c5761174b612258565b5b602001015160f81c60f81b87878151811061176a57611769612258565b5b60200101907effffffffffffffffffffffffffffffffffffffffffffffffffffffffffffff1916908160001a90535085806117a490612287565b96505080806117b290612287565b915050611730565b5060005b89602001515181101561185057896020015181815181106117e2576117e1612258565b5b602001015160f81c60f81b878781518110611800576117ff612258565b5b60200101907effffffffffffffffffffffffffffffffffffffffffffffffffffffffffffff1916908160001a905350858061183a90612287565b965050808061184890612287565b9150506117be565b5060005b8960400151518110156118e6578960400151818151811061187857611877612258565b5b602001015160f81c60f81b87878151811061189657611895612258565b5b60200101907effffffffffffffffffffffffffffffffffffffffffffffffffffffffffffff1916908160001a90535085806118d090612287565b96505080806118de90612287565b915050611854565b5060005b60208110156119745783818151811061190657611905612258565b5b602001015160f81c60f81b87878151811061192457611923612258565b5b60200101907effffffffffffffffffffffffffffffffffffffffffffffffffffffffffffff1916908160001a905350858061195e90612287565b965050808061196c90612287565b9150506118ea565b5060005b6020811015611a025782818151811061199457611993612258565b5b602001015160f81c60f81b8787815181106119b2576119b1612258565b5b60200101907effffffffffffffffffffffffffffffffffffffffffffffffffffffffffffff1916908160001a90535085806119ec90612287565b96505080806119fa90612287565b915050611978565b5060005b6020811015611a9057818181518110611a2257611a21612258565b5b602001015160f81c60f81b878781518110611a4057611a3f612258565b5b60200101907effffffffffffffffffffffffffffffffffffffffffffffffffffffffffffff1916908160001a9053508580611a7a90612287565b9650508080611a8890612287565b915050611a06565b5085975050505050505050919050565b828054611aac9061212f565b90600052602060002090601f016020900481019282611ace5760008555611b15565b82601f10611ae757805160ff1916838001178555611b15565b82800160010185558215611b15579182015b82811115611b14578251825591602001919060010190611af9565b5b509050611b229190611b26565b5090565b5b80821115611b3f576000816000905550600101611b27565b5090565b6000604051905090565b600080fd5b600080fd5b600073ffffffffffffffffffffffffffffffffffffffff82169050919050565b6000611b8282611b57565b9050919050565b611b9281611b77565b8114611b9d57600080fd5b50565b600081359050611baf81611b89565b92915050565b600060208284031215611bcb57611bca611b4d565b5b6000611bd984828501611ba0565b91505092915050565b6000819050919050565b611bf581611be2565b82525050565b611c0481611b77565b82525050565b6000606082019050611c1f6000830186611bec565b611c2c6020830185611bfb565b611c396040830184611bfb565b949350505050565b6000602082019050611c566000830184611bec565b92915050565b600080fd5b600080fd5b6000601f19601f8301169050919050565b7f4e487b7100000000000000000000000000000000000000000000000000000000600052604160045260246000fd5b611caf82611c66565b810181811067ffffffffffffffff82111715611cce57611ccd611c77565b5b80604052505050565b6000611ce1611b43565b9050611ced8282611ca6565b919050565b600067ffffffffffffffff821115611d0d57611d0c611c77565b5b611d1682611c66565b9050602081019050919050565b82818337600083830152505050565b6000611d45611d4084611cf2565b611cd7565b905082815260208101848484011115611d6157611d60611c61565b5b611d6c848285611d23565b509392505050565b600082601f830112611d8957611d88611c5c565b5b8135611d99848260208601611d32565b91505092915050565b60008060408385031215611db957611db8611b4d565b5b600083013567ffffffffffffffff811115611dd757611dd6611b52565b5b611de385828601611d74565b925050602083013567ffffffffffffffff811115611e0457611e03611b52565b5b611e1085828601611d74565b9150509250929050565b600081519050919050565b600082825260208201905092915050565b60005b83811015611e54578082015181840152602081019050611e39565b83811115611e63576000848401525b50505050565b6000611e7482611e1a565b611e7e8185611e25565b9350611e8e818560208601611e36565b611e9781611c66565b840191505092915050565b6000819050919050565b611eb581611ea2565b82525050565b600060c082019050611ed06000830189611bfb565b8181036020830152611ee28188611e69565b90508181036040830152611ef68187611e69565b9050611f056060830186611eac565b611f126080830185611eac565b611f1f60a0830184611bec565b979650505050505050565b60008115159050919050565b611f3f81611f2a565b82525050565b6000602082019050611f5a6000830184611f36565b92915050565b611f6981611ea2565b8114611f7457600080fd5b50565b600081359050611f8681611f60565b92915050565b611f9581611be2565b8114611fa057600080fd5b50565b600081359050611fb281611f8c565b92915050565b600080600080600060a08688031215611fd457611fd3611b4d565b5b600086013567ffffffffffffffff811115611ff257611ff1611b52565b5b611ffe88828901611d74565b955050602086013567ffffffffffffffff81111561201f5761201e611b52565b5b61202b88828901611d74565b945050604061203c88828901611f77565b935050606061204d88828901611f77565b925050608061205e88828901611fa3565b9150509295509295909350565b6000819050919050565b61208661208182611ea2565b61206b565b82525050565b60008160601b9050919050565b60006120a48261208c565b9050919050565b60006120b682612099565b9050919050565b6120ce6120c982611b77565b6120ab565b82525050565b60006120e08285612075565b6020820191506120f082846120bd565b6014820191508190509392505050565b7f4e487b7100000000000000000000000000000000000000000000000000000000600052602260045260246000fd5b6000600282049050600182168061214757607f821691505b6020821081141561215b5761215a612100565b5b50919050565b7f4e487b7100000000000000000000000000000000000000000000000000000000600052601160045260246000fd5b600061219b82611ea2565b91506121a683611ea2565b9250827fffffffffffffffffffffffffffffffffffffffffffffffffffffffffffffffff038211156121db576121da612161565b5b828201905092915050565b60006121f282846120bd565b60148201915081905092915050565b600061220d8284612075565b60208201915081905092915050565b6000819050919050565b61223761223282611be2565b61221c565b82525050565b60006122498284612226565b60208201915081905092915050565b7f4e487b7100000000000000000000000000000000000000000000000000000000600052603260045260246000fd5b600061229282611ea2565b91507fffffffffffffffffffffffffffffffffffffffffffffffffffffffffffffffff8214156122c5576122c4612161565b5b60018201905091905056fea2646970667358221220e0c50df7fe866f12f32f33f79b2fa1e0f86904b3e972b4f3fb4420e8e4292fe964736f6c634300080a0033",
  "immutableReferences": {},
  "source": "pragma solidity ^0.8.0;\n\ncontract certificate {\n    struct userinfo{\n        address addr; //20\n        string name; //bytes(u.name).length\n        string birth; //bytes(u.birth).length\n        uint notBefore; //32\n        uint notAfter; //32\n        bytes32 id; //32\n    }\n    struct cert {\n        bytes32 certhash;\n        address caPubkey;\n        address userPubkey;\n    }\n    \n    bytes32 certhash;\n    address addr;\n    uint notBefore;\n    uint notAfter;\n    \n    constructor() public {\n        addr = msg.sender;\n    }\n    \n    mapping(address => userinfo) public addressToInfo;\n    mapping(address => cert) public certificates;\n    \n    \n    function hasinfo() public returns(bool){\n        if(addressToInfo[addr].id == 0 ){\n            return false;\n        }\n        return true;\n    }\n    \n    function setTime() public{\n        notBefore = block.timestamp;\n        notAfter = notBefore + 365 days;\n    }\n    \n    function newUserInfo(string memory name, string memory birth) public{\n        addressToInfo[addr].addr = msg.sender;\n        addressToInfo[addr].name = name;\n        addressToInfo[addr].birth = birth;\n        addressToInfo[addr].notBefore = notBefore;\n        addressToInfo[addr].notAfter = notAfter;\n        addressToInfo[addr].id = setId();\n        \n        certhash = keccak256(userinfoToBytes(addressToInfo[addr]));\n        //certhash = keccak256(abi.encodePacked(addressToInfo[addr].name));\n    }\n    \n    function userinfoToBytes(userinfo memory u) private returns (bytes memory data){\n        uint _size = 116 + bytes(u.name).length + bytes(u.birth).length;\n        bytes memory _data = new bytes(_size);\n        \n        uint counter = 0;\n        bytes memory baddr = abi.encodePacked(u.addr);\n        bytes memory bBefore = abi.encodePacked(u.notBefore);\n        bytes memory bAfter = abi.encodePacked(u.notAfter);\n        bytes memory bId = abi.encodePacked(u.id);\n        for (uint i = 0; i < 20; i++){\n            _data[counter] = bytes(baddr)[i];\n            counter++;\n        }\n        for (uint i = 0; i < bytes(u.name).length; i++){\n            _data[counter] = bytes(u.name)[i];\n            counter++;\n        }\n        for (uint i = 0; i < bytes(u.birth).length; i++){\n            _data[counter] = bytes(u.birth)[i];\n            counter++;\n        }\n        for (uint i = 0; i < 32; i++){\n            _data[counter] = bytes(bBefore)[i];\n            counter++;\n        }\n        for (uint i = 0; i < 32; i++){\n            _data[counter] = bytes(bAfter)[i];\n            counter++;\n        }\n        for (uint i = 0; i < 32; i++){\n            _data[counter] = bytes(bId)[i];\n            counter++;\n        }\n        \n        return _data;\n    }\n    \n    function setId() public returns(bytes32){\n        return keccak256(abi.encodePacked(block.timestamp, msg.sender));\n    }\n    \n    function newCert() public{\n        certificates[addr].caPubkey = 0x4d7de9F4B63Cf7A2a551D713d5FDFb8B0d3E3dD8;\n        certificates[addr].userPubkey = addr;\n        certificates[addr].certhash = certhash;\n    }\n    \n    function getCertificate() public view returns(address, string memory, string memory, uint, uint, bytes32){\n        return(addressToInfo[addr].addr, addressToInfo[addr].name, addressToInfo[addr].birth, addressToInfo[addr].notBefore, addressToInfo[addr].notAfter, addressToInfo[addr].id);\n    }\n    \n    function getCertInfo() public view returns(bytes32, address, address){\n        return(certificates[addr].certhash, certificates[addr].caPubkey, certificates[addr].userPubkey);\n    }\n\n    function issue(string memory name, string memory birth) public {\n        if(hasinfo() == false){\n            setTime();\n            newUserInfo(name, birth);\n            newCert();\n        }\n    }\n    \n    /*function verification(bytes32 hash) public returns(bool){\n        if(hash == certificates[addr].certhash){\n            return true;\n        }\n        else{\n            return false;\n        }\n    }*/\n    \n    function verification2(string memory name, string memory birth, uint nbefore, uint nafter, bytes32 id) public returns(bool){\n        uint _size = 116 + bytes(name).length + bytes(birth).length;\n        bytes memory _data = new bytes(_size);\n        \n        uint counter = 0;\n        bytes memory baddr = abi.encodePacked(addr);\n        bytes memory bBefore = abi.encodePacked(nbefore);\n        bytes memory bafter = abi.encodePacked(nafter);\n        bytes memory bId = abi.encodePacked(id);\n        for (uint i = 0; i < 20; i++){\n            _data[counter] = bytes(baddr)[i];\n            counter++;\n        }\n        for (uint i = 0; i < bytes(name).length; i++){\n            _data[counter] = bytes(name)[i];\n            counter++;\n        }\n        for (uint i = 0; i < bytes(birth).length; i++){\n            _data[counter] = bytes(birth)[i];\n            counter++;\n        }\n        for (uint i = 0; i < 32; i++){\n            _data[counter] = bytes(bBefore)[i];\n            counter++;\n        }\n        for (uint i = 0; i < 32; i++){\n            _data[counter] = bytes(bafter)[i];\n            counter++;\n        }\n        for (uint i = 0; i < 32; i++){\n            _data[counter] = bytes(bId)[i];\n            counter++;\n        }\n        \n        bytes32 verifyHash = keccak256(_data);\n        \n        if(verifyHash == certificates[addr].certhash){\n            return true;\n        }\n        else{\n            return false;\n        }\n    }\n    \n}\n",
  "sourcePath": "E:\\TEST\\contracts\\certificate.sol",
  "compiler": {
    "name": "solc",
    "version": "0.8.10+commit.fc410830.Emscripten.clang"
  },
  "schemaVersion": "3.4.3",
  "updatedAt": "2021-11-15T07:53:29.887Z",
  "networkType": "ethereum",
  "devdoc": {
    "kind": "dev",
    "methods": {},
    "version": 1
  },
  "userdoc": {
    "kind": "user",
    "methods": {},
    "version": 1
  }
}