{
  "contractName": "Election",
  "abi": [
    {
      "inputs": [],
      "stateMutability": "nonpayable",
      "type": "constructor"
    },
    {
      "inputs": [
        {
          "internalType": "uint256",
          "name": "",
          "type": "uint256"
        }
      ],
      "name": "candidates",
      "outputs": [
        {
          "internalType": "uint256",
          "name": "id",
          "type": "uint256"
        },
        {
          "internalType": "string",
          "name": "name",
          "type": "string"
        },
        {
          "internalType": "uint256",
          "name": "voteCount",
          "type": "uint256"
        }
      ],
      "stateMutability": "view",
      "type": "function",
      "constant": true
    },
    {
      "inputs": [],
      "name": "candidatesCount",
      "outputs": [
        {
          "internalType": "uint256",
          "name": "",
          "type": "uint256"
        }
      ],
      "stateMutability": "view",
      "type": "function",
      "constant": true
    },
    {
      "inputs": [
        {
          "internalType": "string",
          "name": "_name",
          "type": "string"
        }
      ],
      "name": "addCandidate",
      "outputs": [],
      "stateMutability": "nonpayable",
      "type": "function"
    }
  ],
  "bytecode": "0x608060405234801561001057600080fd5b50610692806100206000396000f3fe608060405234801561001057600080fd5b50600436106100415760003560e01c80632d35a8a2146100465780633477ee2e14610064578063462e91ec14610096575b600080fd5b61004e6100b2565b60405161005b91906102a6565b60405180910390f35b61007e60048036038101906100799190610301565b6100b8565b60405161008d939291906103c7565b60405180910390f35b6100b060048036038101906100ab919061053a565b61016a565b005b60005481565b60016020528060005260406000206000915090508060000154908060010180546100e1906105b2565b80601f016020809104026020016040519081016040528092919081815260200182805461010d906105b2565b801561015a5780601f1061012f5761010080835404028352916020019161015a565b820191906000526020600020905b81548152906001019060200180831161013d57829003601f168201915b5050505050908060020154905083565b60008081548092919061017c90610613565b919050555060405180606001604052806000548152602001828152602001600081525060016000805481526020019081526020016000206000820151816000015560208201518160010190805190602001906101d99291906101ea565b506040820151816002015590505050565b8280546101f6906105b2565b90600052602060002090601f016020900481019282610218576000855561025f565b82601f1061023157805160ff191683800117855561025f565b8280016001018555821561025f579182015b8281111561025e578251825591602001919060010190610243565b5b50905061026c9190610270565b5090565b5b80821115610289576000816000905550600101610271565b5090565b6000819050919050565b6102a08161028d565b82525050565b60006020820190506102bb6000830184610297565b92915050565b6000604051905090565b600080fd5b600080fd5b6102de8161028d565b81146102e957600080fd5b50565b6000813590506102fb816102d5565b92915050565b600060208284031215610317576103166102cb565b5b6000610325848285016102ec565b91505092915050565b600081519050919050565b600082825260208201905092915050565b60005b8381101561036857808201518184015260208101905061034d565b83811115610377576000848401525b50505050565b6000601f19601f8301169050919050565b60006103998261032e565b6103a38185610339565b93506103b381856020860161034a565b6103bc8161037d565b840191505092915050565b60006060820190506103dc6000830186610297565b81810360208301526103ee818561038e565b90506103fd6040830184610297565b949350505050565b600080fd5b600080fd5b7f4e487b7100000000000000000000000000000000000000000000000000000000600052604160045260246000fd5b6104478261037d565b810181811067ffffffffffffffff821117156104665761046561040f565b5b80604052505050565b60006104796102c1565b9050610485828261043e565b919050565b600067ffffffffffffffff8211156104a5576104a461040f565b5b6104ae8261037d565b9050602081019050919050565b82818337600083830152505050565b60006104dd6104d88461048a565b61046f565b9050828152602081018484840111156104f9576104f861040a565b5b6105048482856104bb565b509392505050565b600082601f83011261052157610520610405565b5b81356105318482602086016104ca565b91505092915050565b6000602082840312156105505761054f6102cb565b5b600082013567ffffffffffffffff81111561056e5761056d6102d0565b5b61057a8482850161050c565b91505092915050565b7f4e487b7100000000000000000000000000000000000000000000000000000000600052602260045260246000fd5b600060028204905060018216806105ca57607f821691505b602082108114156105de576105dd610583565b5b50919050565b7f4e487b7100000000000000000000000000000000000000000000000000000000600052601160045260246000fd5b600061061e8261028d565b91507fffffffffffffffffffffffffffffffffffffffffffffffffffffffffffffffff821415610651576106506105e4565b5b60018201905091905056fea264697066735822122071914915165bf8ffd940dfd3dc1f3bde5a6a37cd123bf3c6c0a0b2154cd8c16a64736f6c634300080a0033",
  "immutableReferences": {},
  "source": "pragma solidity >=0.4.22 <0.9.0;\n\ncontract Election {\n    \n    //  \n    struct Candidate {\n        uint id;\n        string name;\n        uint voteCount;\n    }\n\n    //   \n    uint public candidatesCount;\n\n    //  \n    mapping(uint => Candidate) public candidates;\n\n    //  \n    function addCandidate (string memory _name) public {\n        candidatesCount++;\n        candidates[candidatesCount] = Candidate(candidatesCount, _name, 0);\n    }\n\n    // constructor\n    constructor() public {\n    }\n}",
  "sourcePath": "E:\\TEST\\contracts\\Election.sol",
  "compiler": {
    "name": "solc",
    "version": "0.8.10+commit.fc410830.Emscripten.clang"
  },
  "schemaVersion": "3.4.3",
  "updatedAt": "2021-11-15T07:53:23.260Z",
  "networkType": "ethereum",
  "devdoc": {
    "kind": "dev",
    "methods": {},
    "version": 1
  },
  "userdoc": {
    "kind": "user",
    "methods": {},
    "version": 1
  }
}